:1000000035C1000051C100004FC100004DC10000CA
:100010004BC1000049C1000047C1000045C10000BC
:1000200043C1000041C100003FC100003DC10000CC
:100030003BC100000C94FF0837C1000035C100002F
:1000400033C1000031C100002FC100002DC10000EC
:100050002BC1000029C1000027C1000025C10000FC
:1000600023C1000021C100001FC100001DC100000C
:100070001BC1000019C1000017C1000015C100001C
:1000800013C1000011C100000FC1000000000000FA
:100090000000005F00000007000700147F147F14B9
:1000A000242A7F2A122313086462364955225000FD
:1000B00005030000001C2241000041221C0014081E
:1000C0003E081408083E08080050300000080808E0
:1000D0000808006060000020100804023E514945F5
:1000E0003E00427F400042615149462141454B312B
:1000F0001814127F1027454545393C4A49493001BB
:10010000710905033649494936064949291E003611
:100110003600000056360000081422410014141462
:100120001414004122140802015109063249794190
:100130003E7E1111117E7F494949363E414141229F
:100140007F4141221C7F494949417F090909013EFC
:100150004149497A7F0808087F00417F41002040DB
:10016000413F017F081422417F404040407F020C04
:10017000027F7F0408107F3E4141413E7F0909090B
:10018000063E4151215E7F091929464649494931B8
:1001900001017F01013F4040403F1F2040201F3FA1
:1001A0004038403F63140814630708700807615122
:1001B000494543007F4141000204081020004141AD
:1001C0007F0004020102044040404040000102045C
:1001D0000020545454787F484444383844444420E0
:1001E000384444487F3854545418087E0901020C9E
:1001F0005252523E7F0804047800447D4000204063
:10020000443D007F1028440000417F40007C0418DA
:1002100004787C0804047838444444387C1414146A
:1002200008081414187C7C0804040848545454200A
:10023000043F4440203C4040207C1C2040201C3C8B
:100240004030403C44281028440C5050503C4464FA
:10025000544C44000836410000007F000000413645
:1002600008001008081008000000000011241FBE3C
:10027000CFEFD0E4DEBFCDBF12E0A0E0B1E0EEE30F
:10028000F9E100E00BBF02C007900D92A437B1075F
:10029000D9F72AE0A4E7B2E001C01D92AF3AB20755
:1002A000E1F7D7D40C949D0CABCECF93DF93EC0148
:1002B0000E945C0A2091740230917502C9018C0F72
:1002C0009D1F8C3D45E0940758F42817390758F4D2
:1002D000E901CA58DD4F909375028093740205C0FE
:1002E000C0E0D0E002C0C0E0D0E00E94260BCE010A
:1002F000DF91CF9108950895FC0103969283818345
:100300002FEF3FEF34832383968385839087878302
:1003100010820895FC01118610860895CF93DF9313
:10032000FC01DB0121813281E9018A819B811396E5
:100330009C938E9312978181928115969C938E93B4
:1003400014978A819B81EC017D836C83E9017B8317
:100350006A83728361831996FC93EE931897808168
:100360008F5F8083DF91CF910895CF93DF93EB016F
:10037000488159814F3F2FEF520731F4DC01179626
:10038000ED91FC91189717C0FC013396DC0115968E
:100390002D913C911697D9012D913C91421753070D
:1003A00050F00280F381E02DA281B3812D913C9128
:1003B00042175307B0F7A281B381BB83AA83159676
:1003C000DC93CE931497FD83EC83D383C283998708
:1003D0008887FC0120812F5F2083DF91CF910895D2
:1003E000FC01A281B3818481958115969C938E93A3
:1003F0001497A481B5818281938113969C938E93E7
:100400001297A085B18511968D919C911297E8174E
:10041000F90731F48481958112969C938E931197FC
:10042000118610868C9181508C9308958EEF88B937
:10043000000086B1809584FD46C086B1809585FD1B
:1004400044C086B1809586FD42C086B1809590E01B
:10045000880F892F881F990B9195892BD1F58DEFE6
:1004600088B9000086B1809584FD35C086B180953D
:1004700085FD33C086B1809586FD31C086B18095FB
:1004800090E0880F892F881F990B9195892B49F54A
:100490008BEF88B9000086B1809584FD24C086B1B9
:1004A000809585FD22C086B1809586FD20C086B1ED
:1004B000809590E0880F892F881F990B9195892B43
:1004C000C1F480E0089581E3089584E3089587E30B
:1004D00008958AE2089582E3089585E3089588E304
:1004E000089580E3089583E3089586E3089589E3FA
:1004F000089583E20895CF92DF92EF92FF920F93D7
:100500001F93CF93DF93CDB7DEB729970FB6F8943B
:10051000DEBF0FBECDBF89E0ECE2F1E0DE01119657
:1005200001900D928A95E1F7E9E0F1E082E191E036
:1005300011928E179F07E1F779DF06C08FE493ECE5
:100540000197F1F700C0000071DF182F8823B1F385
:1005500006C0EFE4F3EC3197F1F700C0000066DF6E
:100560001817B9F37FC000E00F2EFAE2CF2EF02D5E
:100570000F2EFFE5DF2EF02D0F2EF9E0EF2EF1E02C
:10058000FF2EF02D1A3219F5011104C0D982F7019E
:10059000108245C00150802F90E0E1E0F0E0EC0FC8
:1005A000FD1FE80FF91FD0829C012F5F3F4FE1E054
:1005B000F0E0EC0FFD1FE20FF31FC082FC01E75FCC
:1005C000FE4F1082F901E75FFE4F108228C0011133
:1005D00006C01983F701D182108301E020C00730E3
:1005E00029F41887CF82F701178319C0802F90E074
:1005F000FE01E80FF91FC082E1E0F0E0EC0FFD1F03
:10060000E80FF91F1083E2E0F0E0EC0FFD1FE80FA8
:10061000F91FD082FC01E75FFE4F10830F5F84D388
:1006200061E08DE191E066D46AE080E075D461E03C
:10063000CE0101965FD475D406C08FE493EC019788
:10064000F1F700C00000F2DE182F8823B1F306C0D6
:10065000EFE4F3EC3197F1F700C00000E7DE181784
:10066000B9F304C0133209F07ECF03C0133209F08E
:1006700089CF29960FB6F894DEBF0FBECDBFDF91AC
:10068000CF911F910F91FF90EF90DF90CF90089541
:100690004BD361E085E391E02DD46AE080E03CD467
:1006A00061E081E491E026D464E180E035D461E04A
:1006B0008AE491E01FD46EE180E02ED461E080E80E
:1006C00091E018D468E280E027D461E086E591E00B
:1006D00011D427C40895CF938091AD0A813039F1A8
:1006E00018F08230C9F147C0D3DF1092540810923D
:1006F0005308109252088091AD0A823009F4A0C0CC
:1007000038F4882309F44CC0813009F493C023C124
:10071000843009F4B2C008F4A4C0853009F4B5C02F
:100720001AC18FE493EC0197F1F700C000007EDE60
:10073000C82F8823B1F306C08FE493EC0197F1F73B
:1007400000C0000073DEC817B9F316C08FE493EC45
:100750000197F1F700C0000069DEC82F8823B1F3CC
:1007600006C08FE493EC0197F1F700C000005EDE55
:10077000C817B9F301C0C0E08091AD0A823009F416
:1007800060C028F4882361F0813071F0E4C08430C7
:1007900009F473C008F465C0853009F476C0DBC085
:1007A00081E08093AD0AD9C0C333C1F4BDD261E00A
:1007B00084E691E09FD36AE080E0AED361E087E712
:1007C00091E098D364E180E0A7D361E087E891E00D
:1007D00091D3A7D382E08093AD0ABFC0C133A1F407
:1007E00081E080935208A0D261E08DE191E082D354
:1007F0006AE080E091D361E08CE291E07BD391D319
:1008000085E08093AD0AA9C0C233A1F482E0809351
:1008100052088AD261E08DE191E06CD36AE080E019
:100820007BD361E08CE291E065D37BD385E080935C
:10083000AD0A93C01092520881E08093AD0A8DC03A
:10084000C0E0C33311F424DF0CC0C13321F481E0D4
:10085000809357080AC0C23309F07FC081E08093BB
:10086000560880915708882321F083E08093AD0AD1
:1008700074C081E08093AD0A70C0809156088111E8
:100880006CC081E08093AD0A68C035DE69E071E03C
:1008900082E191E00E947E0C892B09F03FC044D296
:1008A00061E084E991E026D33CD380915208813005
:1008B000C9F480935408289A9FE724E88EE1915068
:1008C00020408040E1F700C000009FE724E88EE16F
:1008D000915020408040E1F700C000001092540881
:1008E000289819C081E080935308299A9FE724E84B
:1008F0008EE1915020408040E1F700C000009FE76A
:1009000024E88EE1915020408040E1F700C00000D3
:100910001092530829981092520818C005D261E02D
:1009200082EA91E0E7D2FDD29FE72AE186E091508A
:1009300020408040E1F700C000009FE72AE186E008
:10094000915020408040E1F700C00000A1DE81E02E
:100950008093AD0A02C01092AD0ACF910895109213
:10096000AD0AB9DE84E690E0F5D6FBCFAF92BF9238
:10097000CF92DF92EF92FF920F93A12CB12CC12C5A
:10098000D12CE12CF12C082F20E030E045E550E09F
:1009900065EB71E08FEA94E069D40F91FF90EF90DE
:1009A000DF90CF90BF90AF9008958091AE0A8230D3
:1009B00031F0833031F0813029F49DDD03C09BDDBF
:1009C00001C099DD8091AE0A8130F1F038F08230BB
:1009D00009F450C0833009F465C0E5C08091570820
:1009E000882309F4E2C0A0D161E084EC91E082D2D6
:1009F0006AE080E091D261E08CE291E07BD291D21A
:100A000081E08093AE0A089569E071E082E191E0AF
:100A100075D7892B89F488D161E085ED91E06AD2A0
:100A20006AE080E079D261E08CE291E063D279D231
:100A300082E08093AE0A089577D161E082EA91E086
:100A400059D26FD22FE78AE196E021508040904042
:100A5000E1F700C000002FE78AE196E021508040D6
:100A60009040E1F700C000001092570811DE10928C
:100A7000AE0A089559D161E082EE91E03BD26AE07E
:100A800080E04AD261E08CE291E034D24AD269E05F
:100A900071E080E091E03BD71092550883E08093AD
:100AA000AE0A089569E071E080E091E027D7892BD4
:100AB00061F560E071E082E191E029D735D161E034
:100AC00082EF91E017D22DD22FE38DE093E02150F9
:100AD00080409040E1F700C000002FE38DE093E0FC
:100AE000215080409040E1F700C000002FE38DE0EE
:100AF00093E0215080409040E1F700C00000C8DD45
:100B0000109257081092AE0A0895809155088230CD
:100B100070F50AD161E083E092E0ECD102D22FE3DC
:100B20008DE093E0215080409040E1F700C000004C
:100B30002FE38DE093E0215080409040E1F700C02A
:100B40000000F2D061E082EE91E0D4D16AE080E072
:100B5000E3D161E08CE291E0CDD1E3D18091550801
:100B60008F5F8093550883E08093AE0A0895DCD0B0
:100B700061E082E292E0BED1D4D12FE38DE093E038
:100B8000215080409040E1F700C000002FE38DE04D
:100B900093E0215080409040E1F700C0000078DDF4
:100BA0001092AE0A08951092AE0A08951092AE0AFD
:100BB000FCDE84E690E0CED5FBCFAF92BF92CF9221
:100BC000DF92EF92FF920F93A12CB12CC12CD12C6C
:100BD000E12CF12C082F20E030E045E550E069E4FD
:100BE00072E086ED95E042D30F91FF90EF90DF9099
:100BF000CF90BF90AF9008958091AC0A843010F0F0
:100C00001092AC0A08951092AC0AF6DF84E690E0E8
:100C1000A1D5FBCFAF92BF92CF92DF92EF92FF921E
:100C20000F93A12CB12CC12CD12CE12CF12C082F2D
:100C300020E030E045E550E06DE572E083E096E0CD
:100C400015D30F91FF90EF90DF90CF90BF90AF90B2
:100C500008958FEF84B915B89FE097B990EF98B9D0
:100C60008AB91BB82BD081E081DE81E0A6DF81E06C
:100C7000D1DFF9D380E090E008955998662311F010
:100C80005B9A15C05B9813C0AC01022E02C055954B
:100C900047950A94E2F740FF02C05C9A01C05C9855
:100CA0005D9A5D982150310978F7599A089527E0A7
:100CB00030E090E0E9CF60E0E0CF0895CF93DF939C
:100CC000519A529A539A549A559A5A9A599A83EC2D
:100CD00099E00197F1F700C000005A988BE594E481
:100CE0000197F1F700C000005A9A599881E2E3DFBA
:100CF00083E1E1DF86E0DFDF82ECDDDF80E2DBDF66
:100D000089E0D9DF80E8D7DF80E4D5DFC8EFD1E024
:100D100061E080E0B2DF2197D9F788E0CCDF8CE09A
:100D2000CADFDF91CF91089580E8C5DF80E4C3DF9B
:100D30001092500A1092510AE8E5F8E080E59AE036
:100D40001192E817F907E1F70895262F26952695C1
:100D5000269590E034E5239F800D911D11244423B6
:100D600079F0FC01E85AF74F677081E090E002C02B
:100D7000880F991F6A95E2F79081892B80830895E7
:100D8000FC01E85AF74F677081E090E002C0880FDD
:100D9000991F6A95E2F78095908189238083089551
:100DA0005F926F927F928F929F92AF92BF92CF92FB
:100DB000DF92EF92FF920F931F93CF93DF93562E04
:100DC000262F30E04901880C991C880C991C820E52
:100DD000931E181419040CF059C08901000F111F3B
:100DE000000F111F000F111F021B130B612CA82EE7
:100DF000B12CC50180975C01AA0CBB1CAA0CBB1CC2
:100E0000A80EB91E0F2EF1E5CF2EFAE0DF2EF02D41
:100E10000F2EF0E5EF2EFAE0FF2EF02D2AC0FE0196
:100E2000249130E0872D652D56D502C03595279544
:100E30008A95E2F720FF09C0F6016081670DF7018E
:100E4000808141E0860D81DF08C0F6016081670D79
:100E5000F701808140E0860D78DF7394872D90E064
:100E600080179107E4F26394862D90E08815990528
:100E70006CF410161106BCF7862D652D2CD5E501F6
:100E8000C80FD11DC457DF4F712CC9CF8091500AB4
:100E900091E0980F852D880F880F850D890F843577
:100EA00018F48093500A0EC01092500AE1E5FAE05F
:100EB000808191E0980F852D880F880F880F851904
:100EC000890F80838091510A803320F01092500A5C
:100ED0001092510ADF91CF911F910F91FF90EF90E7
:100EE000DF90CF90BF90AF909F908F907F906F904A
:100EF0005F9008951F93CF93DF93EC01888188233F
:100F000039F0162F2196612F4BDF89918111FBCF8C
:100F1000DF91CF911F9108958093500A6093510AF9
:100F200008950F931F93CF93DF9380E8C4DE80E48E
:100F3000C2DEC8E5D8E000E51AE061E089919DDEF7
:100F4000C017D107D1F7DF91CF911F910F9108956D
:100F500031E1FC013083319722E220833197A3E312
:100F6000A0833197608331977083319710823197D6
:100F700060E8608331971082319762E06083319737
:100F800063E06083319764E06083319765E060835C
:100F9000319766E06083319767E06083319768E05E
:100FA0006083319769E06083319760E160833197B6
:100FB0003083319732E13083319733E13083319799
:100FC00034E13083319735E13083319736E1308336
:100FD000319737E13083319738E13083319739E108
:100FE0003083319730E23083319731E2308331976B
:100FF0002083319723E220833197408331975083B8
:10100000319726E22083319727E22083319728E227
:101010002083319729E22083319720E32083319781
:1010200021E3208386970895109289008CE78093AE
:1010300088008BE080938100EFE6F0E080818260A1
:101040008083A091AA0AB091AB0ACD91CDBFDD916A
:10105000DEBFFF91EF91DF91CF91BF91AF919F9153
:101060008F917F916F915F914F913F912F911F9140
:101070000F91FF90EF90DF90CF90BF90AF909F9037
:101080008F907F906F905F904F903F902F901F9028
:101090000F900FBE0F90089581E008950F920FB644
:1010A000F8940F921F9211242F923F924F925F92C9
:1010B0006F927F928F929F92AF92BF92CF92DF9268
:1010C000EF92FF920F931F932F933F934F935F9352
:1010D0006F937F938F939F93AF93BF93CF93DF9340
:1010E000EF93FF93A091AA0AB091AB0A0DB60D92AF
:1010F0000EB60D9284D3A091AA0AB091AB0ACD91FD
:10110000CDBFDD91DEBFFF91EF91DF91CF91BF9118
:10111000AF919F918F917F916F915F914F913F918F
:101120002F911F910F91FF90EF90DF90CF90BF9084
:10113000AF909F908F907F906F905F904F903F9077
:101140002F901F900F900FBE0F9008950F920FB623
:10115000F8940F921F9211242F923F924F925F9218
:101160006F927F928F929F92AF92BF92CF92DF92B7
:10117000EF92FF920F931F932F933F934F935F93A1
:101180006F937F938F939F93AF93BF93CF93DF938F
:10119000EF93FF93A091AA0AB091AB0A0DB60D92FE
:1011A0000EB60D928FD12BD3A091AA0AB091AB0AA3
:1011B000CD91CDBFDD91DEBFFF91EF91DF91CF915A
:1011C000BF91AF919F918F917F916F915F914F915F
:1011D0003F912F911F910F91FF90EF90DF90CF9053
:1011E000BF90AF909F908F907F906F905F904F9047
:1011F0003F902F901F900F900FBE0F900895A6DF85
:101200001895CF93DF93EC01E091AA0AF091AB0A15
:101210009383828380915A0A90915B0AC817D907F9
:1012200060F46091AA0A7091AB0A8091700A909163
:10123000710A6E5F7F4F99D816C06091AA0A7091AB
:10124000AB0A8091720A9091730A6E5F7F4F8DD8BE
:1012500080911B0190911C01C817D90720F4D093ED
:101260001C01C0931B01DF91CF9108954F925F92B3
:101270006F927F928F929F92AF92BF92CF92DF92A6
:10128000EF92FF920F931F93CF93DF935C014B017B
:101290003A01290181E290E008D8EC01892B09F498
:1012A000D0C0C114D10409F0C8C0C3010E945501C7
:1012B000988F8F8B009719F4CE011DD8C2C0A3015F
:1012C00065EA70E014D39301215031098F89988D1C
:1012D0003C01620E731E48E050E0B401CE01499615
:1012E0001DD318A2102F043008F013E01E8B6E01DE
:1012F00082E0C80ED11CC6010DD8CE010C960AD8CA
:10130000D987C88784E090E0811B91099D878C87ED
:10131000DB8BCA8BA201B501C3011ADE99838883D6
:10132000E114F10419F0F701D183C0830FB6F894EA
:101330000F9280915C0A8F5F80935C0A8091AA0A69
:101340009091AB0A892BA9F5D093AB0AC093AA0A56
:1013500080915C0A8130E1F586E89AE00E947C0188
:101360008FE89AE00E947C0188E99AE00E947C0163
:1013700081EA9AE00E947C018DE79AE00E947C015C
:1013800084E79AE00E947C0187E69AE00E947C0153
:101390008EE59AE00E947C018DE79AE09093730AB3
:1013A0008093720A84E79AE09093710A8093700A9E
:1013B0000FC08091570A81110BC0E091AA0AF091E9
:1013C000AB0A8689081720F0D093AB0AC093AA0A0B
:1013D0008E899091590A981710F48093590A909128
:1013E000520A9F5F9093520A9091580A981710F4EE
:1013F0008093580A90E09C01220F331F220F331F65
:10140000220F331F820F931FB6018A57954F0E94F8
:101410008E010F900FBE8091570A882351F0E09102
:10142000AA0AF091AB0A8689801728F437DE81E09A
:1014300009C081E007C081E005C0D88ECF8AC6010F
:101440003ECF8FEFDF91CF911F910F91FF90EF90E3
:10145000DF90CF90BF90AF909F908F907F906F90D4
:101460005F904F900895AF92BF92CF92DF92EF922C
:10147000FF920F93A12CB12CC12CD12CE12CF12C7B
:1014800000E020E030E045E550E06EE672E086ECFA
:101490009BE0ECDE813041F4F8948093570A10927F
:1014A0005B0A10925A0AC0DD0F91FF90EF90DF9017
:1014B000CF90BF90AF9008958091560A8F5F809330
:1014C000560A08950F931F93CF93DF938091560A86
:1014D0008111B2C080915A0A90915B0A0196909353
:1014E0005B0A80935A0A80915A0A90915B0A892B71
:1014F00099F58091720A9091730A2091700A309147
:10150000710A3093730A2093720A9093710A809340
:10151000700A8091530A8F5F8093530AE091720A98
:10152000F091730A8081811107C08FEF9FEF909334
:101530001C0180931B0110C0E091720AF091730AA4
:101540000580F681E02D0680F781E02D8281938170
:1015500090931C0180931B0120915A0A30915B0AE1
:1015600080911B0190911C012817390708F469C06C
:10157000E091720AF091730A8081882399F0E091DA
:10158000720AF091730A0580F681E02DC681D78139
:101590008A819B8120915A0A30915B0A281739076A
:1015A000F8F419C08FEF9FEF90931C0180931B01FB
:1015B00048C0E091720AF091730A0580F681E02D2F
:1015C000C681D7818A819B8120915A0A30915B0A1A
:1015D0002817390728F490931C0180931B0131C010
:1015E0008E010E5F1F4FC8010E94F0018C899D89FA
:1015F000892B21F0CE010C960E94F0018E899091EA
:10160000580A981710F48093580A90E09C01220F12
:10161000331F220F331F220F331F820F931FB80176
:101620008A57954F0E948E01E091720AF091730AD9
:1016300080818111BECFB6CF8091550A8F5F809394
:10164000550ADF91CF911F910F910895CF92DF92AC
:10165000EF92FF920F931F93CF93DF930FB6F894FF
:101660000F928091560A81508093560A8091560AB3
:10167000811162C080915C0A811132C060C0D701C3
:101680001596ED91FC911697C681D781CE010C96E7
:101690000E94F0018E010E5F1F4FC8010E94F001F1
:1016A0008E899091580A981710F48093580A90E008
:1016B0009C01220F331F220F331F220F331F820F73
:1016C000931FB8018A57954F0E948E01E091AA0A94
:1016D000F091AB0A9E898689981758F0DC2C09C0D6
:1016E000D12C0F2EF7E6EF2EFAE0FF2EF02DCC24B2
:1016F000C394F70180818111C2CF8091550A88235C
:1017000079F08091550A882391F0DCDE8091550AAA
:1017100081508093550A8091550A8111F6CF07C0F8
:10172000F1E0DF1621F08091540A813039F41092F3
:10173000540AB4DC81E003C080E001C080E00F9077
:101740000FBEDF91CF911F910F91FF90EF90DF902F
:10175000CF900895CF93DF93EC01892B99F0ACDE05
:1017600080915A0A90915B0AC80FD91F8091AA0AEA
:101770009091AB0A02960E94F001CE0142DD66DF35
:10178000811101C08BDCDF91CF9108950F2EFEE512
:10179000EF2EFAE0FF2EF02DC6E8DAE080915D0A28
:1017A000882341F189DED7011C9150DF112311F10B
:1017B0000FB6F8940F92D7011596ED91FC911697FC
:1017C00006811781C80102960E94F00180915C0A8F
:1017D000815080935C0A80915D0A815080935D0AFC
:1017E0000F900FBEF8018789908D0E947B01C80180
:1017F0000E947B018881823088F250DCCFCF8091BB
:10180000560A811113C08091580A90E0FC01EE0F36
:10181000FF1FEE0FFF1FEE0FFF1F8E0F9F1FFC011C
:10182000EA57F54F8081882329F01BC081E080931F
:10183000540A08958091580A81508093580A8091E3
:10184000580A90E0FC01EE0FFF1FEE0FFF1FEE0F96
:10185000FF1F8E0F9F1FFC01EA57F54F80818823E1
:1018600049F38091580A90E09C01220F331F220F08
:10187000331F220F331F280F391FD901AA57B54F25
:101880001196ED91FC9112970280F381E02D129652
:10189000FC93EE9311972757354FE217F30729F47E
:1018A00022813381FD0132832183FC01EE0FFF1F72
:1018B000EE0FFF1FEE0FFF1F8E0F9F1FFC01EA5759
:1018C000F54F0180F281E02D868197819093AB0ADC
:1018D0008093AA0A0895991B79E004C0991F96176E
:1018E00008F0961B881F7A95C9F780950895DC014A
:1018F00001C06D9341505040E0F70895FB01DC01B9
:101900008D91019080190110D9F3990B0895FB0175
:10191000DC0101900D920020E1F70895FB01DC014C
:101920004150504048F001900D920020C9F701C08D
:0E1930001D9241505040E0F70895F894FFCF0B
:10193E0030303030303030300030303030303030C9
:10194E003000303030303030303000FFFF456E74B4
:10195E0065722050617373776F7264005F2A2A2A52
:10196E002A2A2A2A0053656C65637420446F6F72AD
:10197E00002020312E20546F70002020322E204265
:10198E006F74746F6D002020332E2053657474694C
:10199E006E677300312E204368616E67652050615B
:1019AE007373776F726400322E20526573657420E4
:1019BE0053797374656D00332E204D61696E204D21
:1019CE00656E7500446F6F7220556E6C6F636B653C
:1019DE006400496E636F7272656374205061737335
:1019EE00776F7264004D454E5553544154455F54C4
:1019FE0061736B0043757272656E74205061737300
:101A0E00776F7264004E65772050617373776F72D3
:101A1E0064005665726966792050617373776F72D0
:101A2E0064004E65772050617373776F7264205334
:101A3E00657400496E636F727265637420506173D2
:101A4E0073776F72642C2074727920616761696E8E
:101A5E0021004E65772050617373776F7264206E2C
:101A6E006F74207365742E205472792061676169DA
:101A7E006E206C617465722E004368616E676550EE
:101A8E00617373776F72645F5461736B0052657329
:101A9E00657453797374656D5F5461736B0049445B
:041AAE004C450000A3
:00000001FF
